:100000000C94A7000C94C4000C94C4000C94C4007D
:100010000C94C4000C94C4000C94C4000C94C40050
:100020000C94C4000C94C4000C94C4000C94C40040
:100030000C94C4000C94C4000C94C4000C94C40030
:100040000C94C4000C94C4000C94C4000C94C40020
:100050000C94C40000407A10F35A00A0724E1809A4
:100060000010A5D4E80000E87648170000E40B541F
:10007000020000CA9A3B000000E1F50500008096EE
:100080009800000040420F000000A0860100000020
:10009000102700000000E8030000000064000000DA
:1000A00000000A00000000000100000000002C76A3
:1000B000D888DC674F0823DFC1DFAE59E1B1B796BE
:1000C000E5E3E453C63AE651997696E8E6C284261B
:1000D000EB898C9B62ED407C6FFCEFBC9C9F40F2F7
:1000E000BAA56FA5F490055A2AF75C936B6CF96773
:1000F0006DC11BFCE0E40D47FEF520E6B500D0ED38
:10010000902E0300943577050080841E080000209F
:100110004E0A000000C80C333333330F986E12833D
:100120001141EF8D2114893BE65516CFFEE6DB1811
:10013000D1844B381BF77C1D901DA4BBE4242032D6
:1001400084725E228100C9F124ECA1E53D271124CF
:100150001FBECFE5D8E0DEBFCDBF11E0A0E6B0E026
:10016000EEE9FBE202C005900D92A63AB107D9F77D
:1001700011E0A6EAB1E001C01D92AE3CB107E1F783
:100180000E9410100C94CD150C940000EF92FF9279
:100190000F931F937B018C0120E030E040E05FE48F
:1001A0000E94720488238CF0C801B70120E030E07F
:1001B00040E05FE40E943E020E9430059B01AC01DA
:1001C000205030404040504806C0C801B7010E944E
:1001D00030059B01AC01B901CA011F910F91FF903D
:1001E000EF900895A0E0B0E0E8EFF0E00C941B1071
:1001F000DC012B01FA019C91923008F439C1EB012A
:100200008881823008F433C1943069F4843009F075
:100210002FC111969C9111978981981709F428C1D3
:10022000A4E7B0E025C1843009F421C18230A9F4EB
:10023000923009F01DC19A01AD0188E0EA010990F0
:10024000AE01E90109929E018150C1F7E201898165
:1002500011969C918923818308C1923009F407C1CA
:1002600012962D903C901397EB018A819B811496F6
:10027000AD90BD90CD90DC901797EC80FD800E8105
:100280001F819101281B390BB90137FF04C0662774
:100290007727621B730B603271050CF061C0121678
:1002A00013066CF537014801062E04C09694879416
:1002B000779467940A94D2F721E030E040E050E070
:1002C00004C0220F331F441F551F6A95D2F72150D7
:1002D0003040404050402E213F21402351232115E2
:1002E00031054105510521F021E030E040E050E0CA
:1002F00079018A01E628F728082919293CC0232B0F
:10030000D1F1260E371E35014601062E04C0969403
:100310008794779467940A94D2F721E030E040E024
:1003200050E004C0220F331F441F551F6A95D2F7B7
:1003300021503040404050402A213B214C215D213A
:10034000211531054105510521F021E030E040E063
:1003500050E059016A01A628B728C828D9280BC03F
:10036000821593052CF01C01AA24BB24650103C04F
:10037000EE24FF24870111969C91D20111968C9155
:10038000981709F445C0992339F0A80197012A1953
:100390003B094C095D0906C0A60195012E193F09CC
:1003A000400B510B57FD08C01182338222822483F7
:1003B0003583468357831DC081E081833382228247
:1003C00088279927DC01821B930BA40BB50B848330
:1003D0009583A683B7830DC0220F331F441F551F7B
:1003E0002483358346835783828193810197938346
:1003F00082832481358146815781DA01C9010197C1
:10040000A109B1098F5F9F4FAF4FBF4328F30BC0C6
:10041000918333822282EA0CFB1C0C1D1D1DE48299
:10042000F5820683178383E08083248135814681AA
:10043000578157FF1AC0C901AA2797FDA095BA2F67
:1004400081709070A070B07056954795379527953C
:10045000822B932BA42BB52B84839583A683B78300
:1004600082819381019693838283DF0101C0D2014F
:10047000CD01CDB7DEB7E2E10C943710A0E2B0E0D9
:10048000E4E4F2E00C94271069837A838B839C83E5
:100490002D833E834F835887E9E0EE2EF12CEC0E3E
:1004A000FD1ECE010196B7010E9421078E010F5E4D
:1004B0001F4FCE010596B8010E9421078A8991E05D
:1004C00089278A8BC701B801AE01475E5F4F0E9442
:1004D000F2000E944C06A096E6E00C944310A0E2C5
:1004E000B0E0E5E7F2E00C94271069837A838B8310
:1004F0009C832D833E834F835887F9E0EF2EF12CA8
:10050000EC0EFD1ECE010196B7010E9421078E015F
:100510000F5E1F4FCE010596B8010E942107C7014B
:10052000B801AE01475E5F4F0E94F2000E944C0688
:10053000A096E6E00C944310A0E2B0E0E2EAF2E01C
:100540000C941B1069837A838B839C832D833E8359
:100550004F835887CE010196BE01675F7F4F0E948F
:100560002107CE010596BE016F5E7F4F0E942107D5
:100570009985923088F089898230C8F0943019F4D6
:10058000823051F404C0843029F4923081F484E73D
:1005900090E0C6C0923049F420E09A858A89981389
:1005A00021E02A87CE010996BBC0823049F420E0C1
:1005B0009A858A89981321E02A8BCE014196B0C092
:1005C0002D843E844F8458886D887E888F88988CCF
:1005D000EE24FF248701AA24BB24650140E050E0FB
:1005E00060E070E0E0E0F0E0C10181709070892B84
:1005F000E9F0E60CF71C081D191D9A01AB012A0D44
:100600003B1D4C1D5D1D80E090E0A0E0B0E0E614D5
:10061000F7040805190520F481E090E0A0E0B0E0BF
:10062000BA01A901480F591F6A1F7B1FAA0CBB1CE6
:10063000CC1CDD1C97FE08C081E090E0A0E0B0E09B
:10064000A82AB92ACA2ADB2A3196E032F10549F0F4
:10065000660C771C881C991C5694479437942794F1
:10066000C3CFFA85EA892B893C898B859C85280F25
:10067000391F2E5F3F4F17C0CA0181709070892BC0
:1006800061F016950795F794E79480E090E0A0E07C
:10069000B0E8E82AF92A0A2B1B2B7695679557951F
:1006A00047952F5F3F4F77FDE7CF0CC0440F551F95
:1006B000661F771F17FD4160EE0CFF1C001F111F06
:1006C00021503040403090E0590790E0690790E4B5
:1006D000790760F32B8F3C8FDB01CA018F77907015
:1006E000A070B07080349105A105B10561F447FD9B
:1006F0000AC0E114F1040105110529F0405C5F4FC7
:100700006F4F7F4F40781A8EFE1711F081E08A8F6D
:100710004D8F5E8F6F8F78A383E0898FCE014996CE
:100720000E944C06A096E2E10C943710A8E1B0E0DC
:10073000ECE9F3E00C94231069837A838B839C8328
:100740002D833E834F835887B9E0EB2EF12CEC0EBE
:10075000FD1ECE010196B7010E9421078E010F5E9A
:100760001F4FCE010596B8010E942107298522302E
:1007700008F47EC03989323010F4B8017CC08A8513
:100780009A8989278A87243011F0223031F423177F
:1007900009F06EC064E770E06EC0343039F41D8635
:1007A0001E861F86188A1C861B8604C0323021F4E0
:1007B00084E08987B7015FC02B853C858B899C8944
:1007C000281B390B3C872B87ED84FE840F85188905
:1007D000AD88BE88CF88D88CEA14FB040C051D05B3
:1007E00040F4EE0CFF1C001F111F215030403C87CD
:1007F0002B8720E030E040E050E080E090E0A0E097
:10080000B0E460E070E0EA14FB040C051D0540F064
:10081000282B392B4A2B5B2BEA18FB080C091D09E6
:10082000B695A79597958795EE0CFF1C001F111F95
:100830006F5F7F4F6F31710531F7DA01C9018F7733
:100840009070A070B07080349105A105B10561F47D
:1008500027FD0AC0E114F1040105110529F0205C0F
:100860003F4F4F4F5F4F20782D873E874F87588BE4
:10087000BE01675F7F4FCB010E944C066896EAE09D
:100880000C943F10A8E1B0E0E8E4F4E00C942710E9
:1008900069837A838B839C832D833E834F83588720
:1008A00089E0E82EF12CEC0EFD1ECE010196B70179
:1008B0000E9421078E010F5E1F4FCE010596B801E1
:1008C0000E9421078985823040F08989823028F092
:1008D000C701B8010E94990701C08FEF6896E6E052
:1008E0000C944310A8E1B0E0E8E7F4E00C94271082
:1008F00069837A838B839C832D833E834F835887C0
:1009000089E0E82EF12CEC0EFD1ECE010196B70118
:100910000E9421078E010F5E1F4FCE010596B80180
:100920000E9421078985823040F08989823028F031
:10093000C701B8010E94990701C08FEF6896E6E0F1
:100940000C944310A8E1B0E0E8EAF4E00C9427101E
:1009500069837A838B839C832D833E834F8358875F
:1009600089E0E82EF12CEC0EFD1ECE010196B701B8
:100970000E9421078E010F5E1F4FCE010596B80120
:100980000E9421078985823040F08989823028F0D1
:10099000C701B8010E94990701C081E06896E6E0AE
:1009A0000C944310A8E0B0E0E8EDF4E00C942410BF
:1009B0009B01AC0183E08983DA01C9018827B7FD77
:1009C00083959927AA27BB27B82E21153105410504
:1009D000510519F482E089833AC08823A9F02030B8
:1009E00080E0380780E0480780E8580729F460E095
:1009F00070E080E09FEC30C0EE24FF248701E21A13
:100A0000F30A040B150B02C079018A018EE1C82E8E
:100A1000D12CDC82CB82ED82FE820F831887C80145
:100A2000B7010E94FD0501971816190684F4082ED7
:100A300004C0EE0CFF1C001F111F0A94D2F7ED82B8
:100A4000FE820F831887C81AD90ADC82CB82BA8249
:100A5000CE0101960E944C062896E9E00C944010C5
:100A6000ACE0B0E0E6E3F5E00C942B1069837A8308
:100A70008B839C83CE010196BE016B5F7F4F0E94EA
:100A800021078D81823061F1823050F1843021F470
:100A90008E81882351F12EC02F81388537FD20C0EB
:100AA0006E812F3131051CF06623F9F023C08EE1F1
:100AB00090E0821B930B29853A854B855C8504C0A9
:100AC00056954795379527958A95D2F76623B1F0C5
:100AD00050954095309521953F4F4F4F5F4F0EC039
:100AE00020E030E040E050E009C02FEF3FEF4FEF53
:100AF0005FE704C020E030E040E050E8B901CA01FF
:100B00002C96E2E00C944710A8E0B0E0EAE8F5E0AB
:100B10000C9423107B018C016115710581059105F1
:100B200019F482E0898360C083E089838EE1C82E56
:100B3000D12CDC82CB82ED82FE820F831887C80124
:100B4000B7010E94FD05FC013197F7FF3BC022274A
:100B500033272E1B3F0B57016801022E04C0D69489
:100B6000C794B794A7940A94D2F740E050E060E0AD
:100B700070E081E090E0A0E0B0E004C0880F991F31
:100B8000AA1FBB1F2A95D2F70197A109B1098E218F
:100B90009F21A023B1230097A105B10521F041E0D9
:100BA00050E060E070E04A295B296C297D294D8383
:100BB0005E836F8378878EE190E08E1B9F0B9C8312
:100BC0008B8312C0309781F00E2E04C0EE0CFF1CF8
:100BD000001F111F0A94D2F7ED82FE820F8318873F
:100BE000CE1ADF0ADC82CB821A82CE0101960E94E5
:100BF0004C062896EAE00C943F10EF92FF920F9378
:100C00001F937B018C0180E0E81680E0F80681E00C
:100C1000080780E0180788F48FEFE816F104010553
:100C2000110531F028F088E090E0A0E0B0E017C0B6
:100C300080E090E0A0E0B0E012C080E0E81680E044
:100C4000F80680E0080781E0180728F088E190E0C6
:100C5000A0E0B0E004C080E190E0A0E0B0E020E2DD
:100C600030E040E050E0281B390B4A0B5B0B04C01E
:100C700016950795F794E7948A95D2F7F701E4580B
:100C8000FF4F8081281B310941095109C9011F917A
:100C90000F91FF90EF900895DF92EF92FF920F93E4
:100CA0001F93FC01E480F58006811781D18080814B
:100CB000823048F480E090E0A0E1B0E0E82AF92A30
:100CC0000A2B1B2BA5C0843009F49FC0823021F46D
:100CD000EE24FF24870105C0E114F104010511058C
:100CE00019F4E0E0F0E096C0628173819FEF623812
:100CF00079070CF05BC022E83FEF261B370B2A3147
:100D000031052CF020E030E040E050E02AC0B8018E
:100D1000A701022E04C076956795579547950A94CA
:100D2000D2F781E090E0A0E0B0E004C0880F991F06
:100D3000AA1FBB1F2A95D2F70197A109B1098E21DD
:100D40009F21A023B1230097A105B10521F081E0E7
:100D500090E0A0E0B0E09A01AB01282B392B4A2BA0
:100D60005B2BDA01C9018F779070A070B07080346E
:100D70009105A105B10539F427FF09C0205C3F4F5B
:100D80004F4F5F4F04C0215C3F4F4F4F5F4FE0E03C
:100D9000F0E02030A0E03A07A0E04A07A0E45A07BC
:100DA00010F0E1E0F0E079018A0127C060387105B8
:100DB00064F5FB01E158FF4FD801C7018F779070B0
:100DC000A070B07080349105A105B10539F4E7FE3B
:100DD0000DC080E490E0A0E0B0E004C08FE390E0BC
:100DE000A0E0B0E0E80EF91E0A1F1B1F17FF05C0A8
:100DF00016950795F794E794319687E01695079531
:100E0000F794E7948A95D1F705C0EE24FF24870173
:100E1000EFEFF0E06E2F679566276795902F9F772D
:100E2000D794DD24D7948E2F8695492F462B582FA3
:100E30005D29B701CA011F910F91FF90EF90DF90DC
:100E40000895FC01DB01408151812281622F6F777F
:100E500070E0221F2227221F9381892F880F822B67
:100E6000282F30E0991F9927991F11969C9311976D
:100E700021153105A9F5411551056105710511F4DB
:100E800082E037C082E89FEF13969C938E9312976F
:100E90009A01AB0167E0220F331F441F551F6A956B
:100EA000D1F783E08C930DC0220F331F441F551FD1
:100EB00012968D919C911397019713969C938E9304
:100EC0001297203080E0380780E0480780E4580718
:100ED00058F314962D933D934D935C931797089573
:100EE0002F3F310579F4411551056105710519F45C
:100EF00084E08C93089564FF03C081E08C9312C05A
:100F00001C9210C02F57304013963C932E9312978B
:100F100083E08C9387E0440F551F661F771F8A95E7
:100F2000D1F7706414964D935D936D937C931797EE
:100F300008951F93DC01FB019C91923008F447C097
:100F40008081823008F443C0943051F411961C9192
:100F5000843099F58181682F70E0611B71093FC071
:100F6000843021F0923031F48230B9F181818823CC
:100F700089F12DC011961C9111978230F1F0818179
:100F80001817D9F412962D913C9113978281938171
:100F90008217930794F028173907BCF014968D91A7
:100FA0009D910D90BC91A02D248135814681578162
:100FB000281739074A075B0718F4112341F00AC0C4
:100FC00082179307A407B50740F4112319F061E0D5
:100FD00070E005C06FEF7FEF02C060E070E0CB0112
:100FE0001F910895DF93CF93CDB7DEB70E9400081D
:100FF0000E940D0B80E80E943E0BCF91DF91089577
:10100000DF93CF93CDB7DEB70E94F70B2EE731E029
:1010100086E094E0B9010E94440F26E831E087E0C1
:1010200094E0B9010E94440F2EE831E088E094E09A
:10103000B9010E94440F26E931E089E094E0B9014A
:101040000E94440F2EE931E08AE094E0B9010E9449
:10105000440FCF91DF910895DF93CF93CDB7DEB7E3
:101060000E9439080E9458080E949908CF91DF9188
:101070000895DF93CF93CDB7DEB780E060E00E94A4
:10108000180F80E690E00E94760E81E090E00E94CA
:10109000A40BDC01CB01BC01CD0142E050E00E9479
:1010A000D00E83E690E00E94760ECF91DF910895F6
:1010B000DF93CF93CDB7DEB780E06EE00E94180FCC
:1010C00087E690E00E94760E0E94990BCC01A0E08A
:1010D000B0E0BC01CD010E948405DC01CB01BC0164
:1010E000CD0120E030E040E853E40E949603DC01AB
:1010F000CB01BC01CD0120E030E048EC52E40E947D
:101100009C02DC01CB01BC01CD010E94A410DC01DA
:10111000CB01BC01CD010E94C600DC01CB01882FB0
:1011200090E00E94920E85E20E94840DCF91DF91A3
:101130000895DF93CF93CDB7DEB781E060E00E94E2
:10114000180F8BE690E00E94760E81E090E00E94FE
:10115000DB0BDC01CB01BC01CD0143E050E00E9480
:10116000D00E8EE690E00E94760ECF91DF9108952A
:10117000DF93CF9300D000D00F92CDB7DEB79C8322
:101180008B8382E060E00E94180F1A821CC08A8163
:10119000882F90E09C01220F331F8B819C81FC01E2
:1011A000E20FF31F8081918124E08735920719F4C3
:1011B00081E38D8302C020E32D838D810E94840D05
:1011C0008A818F5F8A838A81843108F383E060E0BB
:1011D0000E94180F1982B3C08981282F30E081E066
:1011E00090E0821B930B880F991F22273327281B1F
:1011F000390B8B819C81FC01E20FF31F808191816F
:1012000023E0883E920741F58981882F90E09C0178
:10121000220F331F8B819C81FC01E20FF31F808121
:10122000918124E087359207B9F48981882F90E075
:1012300001969C01220F331F8B819C81FC01E20FE0
:10124000F31F8081918123E0883E920729F48AE090
:1012500094E00E94790F70C08981882F90E09C01F2
:10126000220F331F8B819C81FC01E20FF31F8081D1
:10127000918124E087359207B9F48981882F90E025
:1012800001969C01220F331F8B819C81FC01E20F90
:10129000F31F8081918123E0883E920729F487E043
:1012A00094E00E94790F48C08981282F30E081E0C6
:1012B00090E0821B930B880F991F22273327281B4E
:1012C000390B8B819C81FC01E20FF31F808191819E
:1012D00023E0883E9207B1F48981882F90E09C0139
:1012E000220F331F8B819C81FC01E20FF31F808151
:1012F000918124E08735920729F486E094E00E94EA
:10130000790F1AC08981882F90E09C01220F331F2A
:101310008B819C81FC01E20FF31F8081918124E08D
:101320008735920729F488E094E00E94790F04C081
:1013300089E094E00E94790F89818F5F8983898198
:10134000843108F449CF0F900F900F900F900F90B9
:10135000CF91DF910895DF93CF93CDB7DEB70E9491
:10136000D5090E94000B0E94160A882339F481E0F7
:101370000E94370A0E94160A8823E1F30E94210A7C
:10138000882339F48FEF0E94370A0E94210A8823AC
:10139000E1F30E942C0A882331F780E00E94370A8B
:1013A0000E942C0A8823E1F3DECFDF93CF93CDB7E1
:1013B000DEB70E94F20786EA91E064E10E945A0BD0
:1013C0000E94E509CF91DF910895DF93CF93CDB7C8
:1013D000DEB7A1E3B0E0E1E3F0E080818B7F8C93A6
:1013E000A1E3B0E0E1E3F0E080818F7B8C93A7E3A1
:1013F000B0E0E7E3F0E080818E7F8C93A2E3B0E081
:10140000E2E3F0E0808184608C93A2E3B0E0E2E369
:10141000F0E0808180648C93A8E3B0E0E8E3F0E042
:10142000808181608C93CF91DF910895DF93CF937A
:10143000CDB7DEB7E0E3F0E080818470CF91DF913B
:101440000895DF93CF93CDB7DEB7E0E3F0E080817E
:101450008074CF91DF910895DF93CF93CDB7DEB73E
:10146000E6E3F0E080818170CF91DF910895EF9203
:10147000FF920F931F93DF93CF93CDB7DEB76197A2
:101480000FB6F894DEBF0FBECDBF898B0E94990BBB
:10149000CC01A0E0B0E0BC01CD010E9484057B013D
:1014A0008C018989992787FD9095A92FB92FBC01B7
:1014B000CD010E94D204DC01CB01BC01CD012DEC99
:1014C0003CEC4CE451E40E949C02DC01CB019C0109
:1014D000AD01C801B7010E946F02DC01CB01BC0164
:1014E000CD010E94C600DC01CB01988B8F878F85D0
:1014F0000E943E0B86EA91E064E10E945A0B80E074
:1015000090E0A0E8BFE38B879C87AD87BE876B85A3
:101510007C858D859E8520E030E04AE755E40E9479
:101520009C02DC01CB018F839887A987BA876F81E2
:10153000788589859A8520E030E040E85FE30E9465
:10154000A20488232CF481E090E09E838D833FC029
:101550006F81788589859A8520E03FEF4FE757E4D2
:101560000E94420418164CF56B857C858D859E85FE
:1015700020E030E040E251E40E949C02DC01CB011B
:10158000BC01CD010E94C600DC01CB019E838D838E
:101590000FC080E991E09C838B838B819C810197B4
:1015A000F1F79C838B838D819E8101979E838D8330
:1015B0008D819E81009769F714C06F817885898538
:1015C0009A850E94C600DC01CB019E838D838D81AC
:1015D0009E819A83898389819A810197F1F79A8301
:1015E00089830E94000B61960FB6F894DEBF0FBE90
:1015F000CDBFCF91DF911F910F91FF90EF90089594
:10160000DF93CF93CDB7DEB70E942C0886EA91E036
:101610000E94B808CF91DF910895DF93CF93CDB7A3
:10162000DEB7A1E3B0E0E1E3F0E0808180628C937B
:10163000A1E3B0E0E1E3F0E080818E7F8C93AFE442
:10164000B0E0EFE4F0E0808181608C93AEE4B0E044
:10165000EEE4F0E0808188608C93AEE4B0E0EEE4EC
:10166000F0E0808181608C93AFE4B0E0EFE4F0E0E3
:10167000808180688C93CF91DF910895DF93CF9321
:101680000F92CDB7DEB78983EAE4F0E08981882F35
:1016900090E0918380830F90CF91DF910895DF9345
:1016A000CF93CDB7DEB7E0E3F0E080818170CF91DA
:1016B000DF910895DF93CF93CDB7DEB728970FB6AC
:1016C000F894DEBF0FBECDBF9B838A836C831982E3
:1016D00023C08981882F90E09C01220F331F8A81CB
:1016E0009B81AC01420F531F58874F830E944F0BC1
:1016F000882329F087E594E09E838D8304C0E8EE7B
:10170000F3E0FE83ED834D815E81EF81F8855183A7
:10171000408389818F5F898399818C819817C8F272
:1017200028960FB6F894DEBF0FBECDBFCF91DF91E4
:101730000895DF93CF93CDB7DEB7EAE4F0E0808180
:101740009181CF91DF910895DF93CF9300D0CDB7F2
:10175000DEB79A83898389819A81CC01A0E0B0E0C9
:10176000BC01CD010E948405DC01CB01BC01CD018F
:1017700020E030E040E853E40E949C02DC01CB0111
:101780009C01AD0160E074E284E79BE40E94960353
:10179000DC01CB01BC01CD0120E030E04AE754E49C
:1017A0000E949603DC01CB01BC01CD010F900F908C
:1017B000CF91DF910895DF93CF9300D0CDB7DEB7FF
:1017C0009A83898389819A810E94A40B9B01AC0131
:1017D00060E070E080E89FE30E949603DC01CB01AB
:1017E000BC01CD010F900F90CF91DF910895DF9351
:1017F000CF93CDB7DEB72E970FB6F894DEBF0FBEEE
:10180000CDBFA7E3B0E0E7E3F0E080818E608C938A
:10181000EAE3F0E08FEF808380E090E0A0E7B1E4BE
:101820008B879C87AD87BE876B857C858D859E85E4
:1018300020E030E04AE755E40E949C02DC01CB0145
:101840008F839887A987BA876F81788589859A85DC
:1018500020E030E040E85FE30E94A20488232CF4FB
:1018600081E090E09E838D833FC06F81788589857C
:101870009A8520E03FEF4FE757E40E944204181694
:101880004CF56B857C858D859E8520E030E040E2BF
:1018900051E40E949C02DC01CB01BC01CD010E94FD
:1018A000C600DC01CB019E838D830FC080E991E0EF
:1018B0009C838B838B819C810197F1F79C838B8325
:1018C0008D819E8101979E838D838D819E8100975E
:1018D00069F714C06F81788589859A850E94C60052
:1018E000DC01CB019E838D838D819E819A838983C8
:1018F00089819A810197F1F79A83898388E30E940D
:10190000920C8CE00E94920C0E94880F86E00E944C
:10191000920C2E960FB6F894DEBF0FBECDBFCF91BE
:10192000DF910895DF93CF93CDB7DEB769970FB6F8
:10193000F894DEBF0FBECDBF898FA8E3B0E0E8E327
:10194000F0E080818D7F8C93A8E3B0E0E8E3F0E0E5
:1019500080818B7F8C93A8E3B0E0E8E3F0E08081A6
:1019600088608C93EBE3F0E0898D8083A8E3B0E09E
:10197000E8E3F0E08081877F8C9380E090E0A0E84E
:10198000BFE38D8B9E8BAF8BB88F6D897E898F89DE
:10199000988D2BEA3AEA4AEA50E40E949C02DC0164
:1019A000CB01898B9A8BAB8BBC8B69897A898B89AC
:1019B0009C8920E030E040E85FE30E94A204882395
:1019C0001CF481E0888B91C069897A898B899C8914
:1019D00020E030E04FE753E40E94420418160CF078
:1019E0007BC06D897E898F89988D20E030E04AE741
:1019F00054E40E949603DC01CB018C879D87AE875F
:101A0000BF876C857D858E859F8520E030E04AE725
:101A100055E40E949C02DC01CB0188879987AA8744
:101A2000BB87688579858A859B8520E030E040E822
:101A30005FE30E94A20488232CF481E090E09F835E
:101A40008E833FC0688579858A859B8520E03FEF3E
:101A50004FE757E40E94420418164CF56C857D85CB
:101A60008E859F8520E030E040E251E40E949C0298
:101A7000DC01CB01BC01CD010E94C600DC01CB0121
:101A80009F838E830FC080E991E09D838C838C813E
:101A90009D810197F1F79D838C838E819F810197B2
:101AA0009F838E838E819F81009769F724C068850C
:101AB00079858A859B850E94C600DC01CB019F83C6
:101AC0008E838E819F819B838A838A819B810197EC
:101AD000F1F79B838A830FC069897A898B899C89F6
:101AE0000E94C600DC01CB01888B888989838981AB
:101AF0008A95F1F7898369960FB6F894DEBF0FBE19
:101B0000CDBFCF91DF910895DF93CF93CDB7DEB7EF
:101B100069970FB6F894DEBF0FBECDBF898FA8E3DB
:101B2000B0E0E8E3F0E0808182608C93A8E3B0E06D
:101B3000E8E3F0E080818B7F8C93A8E3B0E0E8E3FA
:101B4000F0E0808188608C93EBE3F0E0898D808306
:101B5000A8E3B0E0E8E3F0E08081877F8C9380E049
:101B600090E0A0E8BFE38D8B9E8BAF8BB88F6D8923
:101B70007E898F89988D2BEA3AEA4AEA50E40E94DE
:101B80009C02DC01CB01898B9A8BAB8BBC8B698966
:101B90007A898B899C8920E030E040E85FE30E94ED
:101BA000A20488231CF481E0888B91C069897A891A
:101BB0008B899C8920E030E04FE753E40E94420487
:101BC00018160CF07BC06D897E898F89988D20E076
:101BD00030E04AE754E40E949603DC01CB018C8795
:101BE0009D87AE87BF876C857D858E859F8520E02C
:101BF00030E04AE755E40E949C02DC01CB01888773
:101C00009987AA87BB87688579858A859B8520E027
:101C100030E040E85FE30E94A20488232CF481E0D6
:101C200090E09F838E833FC0688579858A859B85F8
:101C300020E03FEF4FE757E40E94420418164CF5AE
:101C40006C857D858E859F8520E030E040E251E403
:101C50000E949C02DC01CB01BC01CD010E94C600A8
:101C6000DC01CB019F838E830FC080E991E09D83CF
:101C70008C838C819D810197F1F79D838C838E816C
:101C80009F8101979F838E838E819F81009769F743
:101C900024C0688579858A859B850E94C600DC0101
:101CA000CB019F838E838E819F819B838A838A81D0
:101CB0009B810197F1F79B838A830FC069897A8999
:101CC0008B899C890E94C600DC01CB01888B8889A6
:101CD000898389818A95F1F7898369960FB6F8948B
:101CE000DEBF0FBECDBFCF91DF910895DF93CF93BD
:101CF00000D0CDB7DEB79A8389830AC0E981FA8123
:101D000080810E94840D89819A8101969A838983BA
:101D1000E981FA818081882389F70F900F90CF9114
:101D2000DF910895DF93CF93CDB7DEB762970FB6FB
:101D3000F894DEBF0FBECDBF9A8B898B8DB79EB74F
:101D400008970FB6F8949EBF0FBE8DBFEDB7FEB7D4
:101D50003196CE0101969183808380E190E0938358
:101D6000828381E790E09583848389899A89978328
:101D700086830E9473108DB79EB708960FB6F894AD
:101D80009EBF0FBE8DBFCE0101960E94760E629659
:101D90000FB6F894DEBF0FBECDBFCF91DF9108958F
:101DA0000F931F93DF93CF93CDB7DEB768970FB62E
:101DB000F894DEBF0FBECDBF6B8B7C8B8D8B9E8B63
:101DC000588F4F8B8B899C89AD89BE892F89388D1F
:101DD000FE013396BC01CD0140E050E08F010E942E
:101DE00052101A8219820FC029813A81CE010396BE
:101DF000FC01E20FF31F80810E94840D89819A818A
:101E000001969A83898329813A81CE010396FC0148
:101E1000E20FF31F8081882339F768960FB6F89494
:101E2000DEBF0FBECDBFCF91DF911F910F910895FF
:101E3000DF93CF9300D00F92CDB7DEB78A836B8349
:101E40008A81882321F48B818058898314C08A81F8
:101E5000813021F48B81805489830DC08A81823046
:101E600021F48B818C56898306C08A81833031F4BA
:101E70008B818C52898389810E94920C0F900F90E4
:101E80000F90CF91DF910895DF93CF9300D000D0D2
:101E900000D0CDB7DEB79C838B837E836D838B812F
:101EA000880F880F880F80640E94920C1A82198212
:101EB0000FC029813A818D819E81FC01E20FF31FC1
:101EC00080810E94840D89819A8101969A838983F9
:101ED00089819A818830910564F380E80E94920C90
:101EE00026960FB6F894DEBF0FBECDBFCF91DF911F
:101EF0000895DF93CF9300D0CDB7DEB79A8389835F
:101F000089810E94840D0F900F90CF91DF910895E9
:101F1000DF93CF93CDB7DEB72E970FB6F894DEBF21
:101F20000FBECDBF81E00E94920C80E090E0A0E067
:101F3000B0E48B879C87AD87BE876B857C858D855C
:101F40009E8520E030E04AE755E40E949C02DC01D7
:101F5000CB018F839887A987BA876F817885898518
:101F60009A8520E030E040E85FE30E94A2048823E5
:101F70002CF481E090E09E838D833FC06F81788553
:101F800089859A8520E03FEF4FE757E40E9442049D
:101F900018164CF56B857C858D859E8520E030E09C
:101FA00040E251E40E949C02DC01CB01BC01CD0166
:101FB0000E94C600DC01CB019E838D830FC080E9A7
:101FC00091E09C838B838B819C810197F1F79C83AB
:101FD0008B838D819E8101979E838D838D819E81D0
:101FE000009769F714C06F81788589859A850E946A
:101FF000C600DC01CB019E838D838D819E819A83F7
:10200000898389819A810197F1F79A8389832E9632
:102010000FB6F894DEBF0FBECDBFCF91DF9108950C
:10202000DF93CF93CDB7DEB70E94AB0980E090E09D
:10203000CF91DF9108952F923F924F925F926F92CE
:102040007F928F929F92AF92BF92CF92DF92EF9248
:10205000FF920F931F93CF93DF93CDB7DEB7CA1BC9
:10206000DB0B0FB6F894DEBF0FBECDBF09942A88F4
:10207000398848885F846E847D848C849B84AA849C
:10208000B984C884DF80EE80FD800C811B81AA8129
:10209000B981CE0FD11D0FB6F894DEBF0FBECDBFF4
:1020A000ED010895EF92FF920F931F93F22FF02E00
:1020B00047FD02C0E4E001C0E4E1242F332727FDFF
:1020C000309537FF03C0309521953F4F4F2D512F4D
:1020D0000F2FEE2E0E94A1128F2D912F1F910F9185
:1020E000FF90EF900895AEE0B0E0E9E7F0E10C94E6
:1020F00029100D891E898F89988D97FF02C080E075
:1021000090E801979E838D831A83098386E08C83F0
:102110009E01255E3F4FCE010196698D7A8DA90102
:102120000E94C4104D815E8157FD0AC02F81388501
:10213000421753070CF49A01020F131FF801108283
:102140002E96E4E00C94451007D5E0F09E37D8F0C9
:102150009639B8F49E3848F4672F782F8827985F0F
:10216000F9CF86957795679593959539D0F3B62FE6
:10217000B1706B0F711D811D20F487957795679560
:102180009395B9C4D3C403C5ABE0B0E0EAECF0E189
:102190000C941B103C012B015A01FC011782168282
:1021A000838181FD03C06FEF7FEFC6C19AE0892E66
:1021B0001E010894211C311CF3012381F20123FD2F
:1021C000859123FF81912F01882309F4B2C18532C3
:1021D00039F423FD859123FF81912F01853229F464
:1021E00090E0B3010E94F114E7CF982FFF24EE2472
:1021F0009924FFE1FF15D0F09B3269F09C3228F45E
:10220000903259F0933291F40EC09D3249F09033E0
:1022100069F441E024C052E0F52A84E0F82A28C09D
:1022200098E0F92A25C0E0E1FE2A22C0F7FC29C087
:10223000892F80538A3070F4F6FE05C0989C902C4C
:102240001124980E15C0E89CE02C1124E80EF0E251
:10225000FF2A0EC09E3229F4F6FC6BC140E4F42A3A
:1022600007C09C3619F450E8F52A02C0983649F4A4
:10227000F20123FD959123FF91912F01992309F0FC
:10228000B8CF892F8554833018F08052833038F4CA
:1022900044E050E0A40EB51E5FE359830FC09336AF
:1022A00031F0933779F0933509F056C020C0F5012D
:1022B0008081898342E050E0A40EB51E610101E0F7
:1022C00010E012C0F501C080D180F6FC03C06FEFB2
:1022D0007FEF02C0692D70E042E050E0A40EB51E11
:1022E000C6010E94E6148C015FE7F52214C0F501D7
:1022F000C080D180F6FC03C06FEF7FEF02C0692D74
:1023000070E042E050E0A40EB51EC6010E94DB144E
:102310008C0150E8F52AF3FE07C01AC080E290E075
:10232000B3010E94F114EA948E2D90E0081719076A
:10233000A8F30EC0F601F7FC8591F7FE81916F01BD
:1023400090E0B3010E94F114E110EA9401501040B2
:102350000115110579F7EAC0943611F0993669F53F
:10236000F7FE08C0F501208131814281538184E06C
:1023700090E00AC0F501808191819C01442737FDDE
:102380004095542F82E090E0A80EB91E9FE6F922F6
:1023900057FF09C050954095309521953F4F4F4FBD
:1023A0005F4FE0E8FE2ACA01B901A1012AE030E04E
:1023B0000E941D15D82ED21840C0953729F41F2D24
:1023C0001F7E2AE030E01DC01F2D197F9F3661F06F
:1023D000903720F4983509F0ACC00FC0903739F031
:1023E000983709F0A6C004C028E030E00AC01061A8
:1023F00014FD146020E130E004C014FD166020E1FB
:1024000032E017FF08C0F5016081718182819381FC
:1024100044E050E008C0F50180819181BC0180E07A
:1024200090E042E050E0A40EB51EA1010E941D15EF
:10243000D82ED2188FE7F82EF122F6FE0BC05EEFF1
:10244000F522D91438F4F4FE07C0F2FC05C08FEE73
:10245000F82202C01D2D01C0192DF4FE0DC0FE0191
:10246000ED0DF11D8081803319F499EEF92208C039
:102470001F5FF2FE05C003C08F2D867809F01F5F35
:102480000F2DF3FC14C0F0FE0FC01E1510F09D2C94
:102490000BC09D2C9E0C911A1E2D06C080E290E070
:1024A000B3010E94F1141F5F1E15C0F304C01E1576
:1024B00010F4E11A01C0EE2404FF0FC080E390E0A5
:1024C000B3010E94F11402FF1DC001FD03C088E7A3
:1024D00090E00EC088E590E00BC0802F867891F0E8
:1024E00001FF02C08BE201C080E2F7FC8DE290E0C8
:1024F000B3010E94F11406C080E390E0B3010E9492
:10250000F1149A94D914C0F3DA94F101ED0DF11D90
:10251000808190E0B3010E94F114DD20A9F706C08C
:1025200080E290E0B3010E94F114EA94EE20C1F73A
:1025300043CEF30166817781CB012B96E2E10C94C7
:102540003710A9E0B0E0E7EAF2E10C941F106A014D
:10255000122FA02EBE2C2BE3201718F42CE3922E62
:1025600002C0902E9394AE014F5F5F4F27E0092D7C
:102570000E940314BC018981E82EFF24C7018970E1
:102580009070019711F4ADE209C0B1FE02C0ABE258
:1025900005C0B0FC02C0A0E001C0A0E2E3FE3BC069
:1025A000AA2311F423E001C024E0211710F020E059
:1025B00002C0121B212FEB2CB4FE02C0322F0AC026
:1025C000F601322F80E202C0819331503323E1F7CC
:1025D000C20ED11CAA2319F0F601A1936F01F601D6
:1025E0003196E2FE05C09EE4D6019C9381E404C0CE
:1025F0009EE6D6019C9381E611968C939183329648
:10260000DF01832F90E202C09D9381508823E1F780
:10261000E30FF11D40C0E2FE42C0AA2311F423E003
:1026200001C024E0211710F020E002C0121B212F6E
:10263000EB2CB4FE02C0922F0AC0F601922F80E26A
:1026400002C0819391509923E1F7C20ED11CAA23B5
:1026500019F0F601A1936F01F6013196E2FE08C070
:1026600089E4D6018C938EE411968C9386E407C09E
:1026700089E6D6018C938EE611968C9386E681834B
:102680003296DF01892F20E202C02D9381508823EA
:10269000E1F7E90FF11D10822EEF3FEFAFC01616E4
:1026A00017061CF041E050E003C0AB014F5F5F4FE5
:1026B000AA2019F480E090E003C08A2D90E00196F2
:1026C00020E030E0AA2311F021E030E0240F351F94
:1026D000280F391F812F90E02817390714F020E0C8
:1026E00002C0121B212F4B2D50E0CA018071907047
:1026F000B4FC0DC0B3FC0BC0F601322F40E202C0A7
:10270000419331503323E1F7C20ED11C01C0322F67
:10271000AA2319F0F601A1936F01892B11F0132F51
:102720000AC0F601132F80E302C0819311501123D8
:10273000E1F7C30ED11C092D060FBA8090E1892E56
:10274000912C8E209F20E4FE04C0F1E3BF1609F413
:102750000150101614F001E003C0093008F008E041
:102760009B0177FF02C020E030E0CB010196821B85
:10277000930BFE013196E80FF91F8EE2F82E3B0114
:10278000601A71088A2D90E044275527481B590B81
:102790008FEF2F3F380719F4D601FD926D016217B4
:1027A00073072CF06216730614F4808101C080E375
:1027B0002150304031962417350724F0D6018D93EF
:1027C0006D01E6CF2617370749F4B5E3BB1528F0AE
:1027D000BB1621F48114910409F481E3F60181937D
:1027E000D601812F90E202C09C93815011968823DC
:1027F000D9F7E10FF11D108220E030E0C9012996E0
:10280000EEE00C943B10283008F027E03327DA0183
:10281000990F311D87FD916000966105710539F4AE
:1028200032602E5F3D9330E32A95E1F708959F3F94
:1028300030F080387105610509F03C5F3C5F3D93E5
:10284000913008F08068911DDF93CF931F930F9311
:10285000FF92EF92192F987F9695E92F969596956E
:10286000E90FFF27E255FF4F99273327EE24FF2476
:10287000A701E70105900894079428F4360FE71E96
:10288000F81E491F511D660F771F881F991F069458
:10289000A1F70590079428F4E70EF81E491F561F6C
:1028A000C11D770F881F991F661F0694A1F7059019
:1028B000079428F4F80E491F561FC71FD11D880F13
:1028C000991F661F771F0694A1F70590079420F4BF
:1028D000490F561FC71FD81F990F661F771F881FE4
:1028E0000694A9F784911095177041F0D695C79575
:1028F00057954795F794E7941A95C1F7E4E5F0E00A
:1029000068941590159135916591959105907FE2A8
:102910007395E118F10A430B560BC90BD009C0F7A8
:10292000E10CF11E431F561FC91FD01D7EF47033EA
:1029300011F48A95E6CFE894015030F0080F0AF4BC
:102940000027021708F4202F2395022F7A3328F04E
:1029500079E37D932A95E9F710C07D932A9589F64E
:10296000069497956795379517951794E118F10A8E
:10297000430B560BC90BD00998F023957E917395A4
:102980007A3308F070E37C932013B8F77E9170617E
:102990007D9330F0839571E37D9370E32A95E1F7A1
:1029A0001124EF90FF900F911F91CF91DF91992704
:1029B00087FD90950895FC010590615070400110CD
:1029C000D8F7809590958E0F9F1F0895FC01615058
:1029D000704001900110D8F7809590958E0F9F1F41
:1029E00008950F931F93CF93DF938C01EB018B819D
:1029F00081FF1BC082FF0DC02E813F818C819D8194
:102A00002817390764F4E881F9810193F983E88391
:102A100006C0E885F985802F0995892B31F48E81D0
:102A20009F8101969F838E8302C00FEF1FEFC80125
:102A3000DF91CF911F910F910895FA01AA272830B5
:102A400051F1203181F1E8946F936E7F6E5F7F4F7B
:102A50008F4F9F4FAF4FB1E03ED0B4E03CD0670FF7
:102A6000781F891F9A1FA11D680F791F8A1F911D4A
:102A7000A11D6A0F711D811D911DA11D20D009F49A
:102A800068943F912AE0269F11243019305D3193DC
:102A9000DEF6CF010895462F4770405D4193B3E0C5
:102AA0000FD0C9F7F6CF462F4F70405D4A3318F06C
:102AB000495D31FD4052419302D0A9F7EACFB4E01D
:102AC000A6959795879577956795BA95C9F70097D5
:102AD0006105710508959B01AC010A2E0694579576
:102AE000479537952795BA95C9F7620F731F841FCD
:102AF000951FA01D0895882371F4772321F0985025
:102B0000872B762F07C0662311F499270DC09051AB
:102B1000862B70E060E02AF09A95660F771F881F79
:102B2000DAF7880F9695879597F908959F3F31F0CA
:102B3000915020F4879577956795B795880F911DEB
:102B40009695879597F9089557FD9058440F551F0E
:102B500059F05F3F71F04795880F97FB991F61F01F
:102B60009F3F79F087950895121613061406551F96
:102B7000F2CF4695F1DF08C0161617061806991F02
:102B8000F1CF86957105610508940895E894BB27F7
:0E2B900066277727CB0197F90895F894FFCFB9
:102B9E00463A004B487A0044433A00543A006D736B
:102BAE000025640000000000000000000001020289
:102BBE0003030303040404040404040405050505C7
:102BCE0005050505050505050505050506060606A3
:102BDE000606060606060606060606060606060687
:102BEE000606060606060606060606060707070773
:102BFE000707070707070707070707070707070757
:102C0E000707070707070707070707070707070746
:102C1E000707070707070707070707070707070736
:102C2E000707070707070707070707070808080822
:102C3E000808080808080808080808080808080806
:102C4E0008080808080808080808080808080808F6
:102C5E0008080808080808080808080808080808E6
:102C6E0008080808080808080808080808080808D6
:102C7E0008080808080808080808080808080808C6
:102C8E0008080808080808080808080808080808B6
:102C9E0008080808080808080808080808080808A6
:102CAE0008080808080808080808080880001F1007
:102CBE001010101010101F010101010101011F0061
:102CCE000000000000000000000000001F001F11A7
:062CDE001111111111118A
:00000001FF
