:100000000C94A7000C94C4000C94C4000C94C4007D
:100010000C94C4000C94C4000C94C4000C94C40050
:100020000C94C4000C94C4000C94C4000C94C40040
:100030000C94C4000C94C4000C94C4000C94C40030
:100040000C94C4000C94C4000C94C4000C94C40020
:100050000C94C40000407A10F35A00A0724E1809A4
:100060000010A5D4E80000E87648170000E40B541F
:10007000020000CA9A3B000000E1F50500008096EE
:100080009800000040420F000000A0860100000020
:10009000102700000000E8030000000064000000DA
:1000A00000000A00000000000100000000002C76A3
:1000B000D888DC674F0823DFC1DFAE59E1B1B796BE
:1000C000E5E3E453C63AE651997696E8E6C284261B
:1000D000EB898C9B62ED407C6FFCEFBC9C9F40F2F7
:1000E000BAA56FA5F490055A2AF75C936B6CF96773
:1000F0006DC11BFCE0E40D47FEF520E6B500D0ED38
:10010000902E0300943577050080841E080000209F
:100110004E0A000000C80C333333330F986E12833D
:100120001141EF8D2114893BE65516CFFEE6DB1811
:10013000D1844B381BF77C1D901DA4BBE4242032D6
:1001400084725E228100C9F124ECA1E53D271124CF
:100150001FBECFE5D8E0DEBFCDBF11E0A0E6B0E026
:10016000EAEDF9E202C005900D92AE39B107D9F778
:1001700011E0AEE9B1E001C01D92A03CB107E1F78A
:100180000E9497110C94EB140C940000EF92FF92D4
:100190000F931F937B018C0120E030E040E05FE48F
:1001A0000E94720488238CF0C801B70120E030E07F
:1001B00040E05FE40E943E020E9430059B01AC01DA
:1001C000205030404040504806C0C801B7010E944E
:1001D00030059B01AC01B901CA011F910F91FF903D
:1001E000EF900895A0E0B0E0E8EFF0E00C94A211E9
:1001F000DC012B01FA019C91923008F439C1EB012A
:100200008881823008F433C1943069F4843009F075
:100210002FC111969C9111978981981709F428C1D3
:10022000ABE6B0E025C1843009F421C18230A9F4E5
:10023000923009F01DC19A01AD0188E0EA010990F0
:10024000AE01E90109929E018150C1F7E201898165
:1002500011969C918923818308C1923009F407C1CA
:1002600012962D903C901397EB018A819B811496F6
:10027000AD90BD90CD90DC901797EC80FD800E8105
:100280001F819101281B390BB90137FF04C0662774
:100290007727621B730B603271050CF061C0121678
:1002A00013066CF537014801062E04C09694879416
:1002B000779467940A94D2F721E030E040E050E070
:1002C00004C0220F331F441F551F6A95D2F72150D7
:1002D0003040404050402E213F21402351232115E2
:1002E00031054105510521F021E030E040E050E0CA
:1002F00079018A01E628F728082919293CC0232B0F
:10030000D1F1260E371E35014601062E04C0969403
:100310008794779467940A94D2F721E030E040E024
:1003200050E004C0220F331F441F551F6A95D2F7B7
:1003300021503040404050402A213B214C215D213A
:10034000211531054105510521F021E030E040E063
:1003500050E059016A01A628B728C828D9280BC03F
:10036000821593052CF01C01AA24BB24650103C04F
:10037000EE24FF24870111969C91D20111968C9155
:10038000981709F445C0992339F0A80197012A1953
:100390003B094C095D0906C0A60195012E193F09CC
:1003A000400B510B57FD08C01182338222822483F7
:1003B0003583468357831DC081E081833382228247
:1003C00088279927DC01821B930BA40BB50B848330
:1003D0009583A683B7830DC0220F331F441F551F7B
:1003E0002483358346835783828193810197938346
:1003F00082832481358146815781DA01C9010197C1
:10040000A109B1098F5F9F4FAF4FBF4328F30BC0C6
:10041000918333822282EA0CFB1C0C1D1D1DE48299
:10042000F5820683178383E08083248135814681AA
:10043000578157FF1AC0C901AA2797FDA095BA2F67
:1004400081709070A070B07056954795379527953C
:10045000822B932BA42BB52B84839583A683B78300
:1004600082819381019693838283DF0101C0D2014F
:10047000CD01CDB7DEB7E2E10C94BE11A0E2B0E051
:10048000E4E4F2E00C94AE1169837A838B839C835D
:100490002D833E834F835887E9E0EE2EF12CEC0E3E
:1004A000FD1ECE010196B7010E9421078E010F5E4D
:1004B0001F4FCE010596B8010E9421078A8991E05D
:1004C00089278A8BC701B801AE01475E5F4F0E9442
:1004D000F2000E944C06A096E6E00C94CA11A0E23D
:1004E000B0E0E5E7F2E00C94AE1169837A838B8388
:1004F0009C832D833E834F835887F9E0EF2EF12CA8
:10050000EC0EFD1ECE010196B7010E9421078E015F
:100510000F5E1F4FCE010596B8010E942107C7014B
:10052000B801AE01475E5F4F0E94F2000E944C0688
:10053000A096E6E00C94CA11A0E2B0E0E2EAF2E094
:100540000C94A21169837A838B839C832D833E83D1
:100550004F835887CE010196BE01675F7F4F0E948F
:100560002107CE010596BE016F5E7F4F0E942107D5
:100570009985923088F089898230C8F0943019F4D6
:10058000823051F404C0843029F4923081F48BE637
:1005900090E0C6C0923049F420E09A858A89981389
:1005A00021E02A87CE010996BBC0823049F420E0C1
:1005B0009A858A89981321E02A8BCE014196B0C092
:1005C0002D843E844F8458886D887E888F88988CCF
:1005D000EE24FF248701AA24BB24650140E050E0FB
:1005E00060E070E0E0E0F0E0C10181709070892B84
:1005F000E9F0E60CF71C081D191D9A01AB012A0D44
:100600003B1D4C1D5D1D80E090E0A0E0B0E0E614D5
:10061000F7040805190520F481E090E0A0E0B0E0BF
:10062000BA01A901480F591F6A1F7B1FAA0CBB1CE6
:10063000CC1CDD1C97FE08C081E090E0A0E0B0E09B
:10064000A82AB92ACA2ADB2A3196E032F10549F0F4
:10065000660C771C881C991C5694479437942794F1
:10066000C3CFFA85EA892B893C898B859C85280F25
:10067000391F2E5F3F4F17C0CA0181709070892BC0
:1006800061F016950795F794E79480E090E0A0E07C
:10069000B0E8E82AF92A0A2B1B2B7695679557951F
:1006A00047952F5F3F4F77FDE7CF0CC0440F551F95
:1006B000661F771F17FD4160EE0CFF1C001F111F06
:1006C00021503040403090E0590790E0690790E4B5
:1006D000790760F32B8F3C8FDB01CA018F77907015
:1006E000A070B07080349105A105B10561F447FD9B
:1006F0000AC0E114F1040105110529F0405C5F4FC7
:100700006F4F7F4F40781A8EFE1711F081E08A8F6D
:100710004D8F5E8F6F8F78A383E0898FCE014996CE
:100720000E944C06A096E2E10C94BE11A8E1B0E054
:10073000ECE9F3E00C94AA1169837A838B839C83A0
:100740002D833E834F835887B9E0EB2EF12CEC0EBE
:10075000FD1ECE010196B7010E9421078E010F5E9A
:100760001F4FCE010596B8010E942107298522302E
:1007700008F47EC03989323010F4B8017CC08A8513
:100780009A8989278A87243011F0223031F423177F
:1007900009F06EC06BE670E06EC0343039F41D862F
:1007A0001E861F86188A1C861B8604C0323021F4E0
:1007B00084E08987B7015FC02B853C858B899C8944
:1007C000281B390B3C872B87ED84FE840F85188905
:1007D000AD88BE88CF88D88CEA14FB040C051D05B3
:1007E00040F4EE0CFF1C001F111F215030403C87CD
:1007F0002B8720E030E040E050E080E090E0A0E097
:10080000B0E460E070E0EA14FB040C051D0540F064
:10081000282B392B4A2B5B2BEA18FB080C091D09E6
:10082000B695A79597958795EE0CFF1C001F111F95
:100830006F5F7F4F6F31710531F7DA01C9018F7733
:100840009070A070B07080349105A105B10561F47D
:1008500027FD0AC0E114F1040105110529F0205C0F
:100860003F4F4F4F5F4F20782D873E874F87588BE4
:10087000BE01675F7F4FCB010E944C066896EAE09D
:100880000C94C611A8E1B0E0E8E4F4E00C94AE11D9
:1008900069837A838B839C832D833E834F83588720
:1008A00089E0E82EF12CEC0EFD1ECE010196B70179
:1008B0000E9421078E010F5E1F4FCE010596B801E1
:1008C0000E9421078985823040F08989823028F092
:1008D000C701B8010E94990701C08FEF6896E6E052
:1008E0000C94CA11A8E1B0E0E8E7F4E00C94AE1172
:1008F00069837A838B839C832D833E834F835887C0
:1009000089E0E82EF12CEC0EFD1ECE010196B70118
:100910000E9421078E010F5E1F4FCE010596B80180
:100920000E9421078985823040F08989823028F031
:10093000C701B8010E94990701C08FEF6896E6E0F1
:100940000C94CA11A8E1B0E0E8EAF4E00C94AE110E
:1009500069837A838B839C832D833E834F8358875F
:1009600089E0E82EF12CEC0EFD1ECE010196B701B8
:100970000E9421078E010F5E1F4FCE010596B80120
:100980000E9421078985823040F08989823028F0D1
:10099000C701B8010E94990701C081E06896E6E0AE
:1009A0000C94CA11A8E0B0E0E8EDF4E00C94AB11AF
:1009B0009B01AC0183E08983DA01C9018827B7FD77
:1009C00083959927AA27BB27B82E21153105410504
:1009D000510519F482E089833AC08823A9F02030B8
:1009E00080E0380780E0480780E8580729F460E095
:1009F00070E080E09FEC30C0EE24FF248701E21A13
:100A0000F30A040B150B02C079018A018EE1C82E8E
:100A1000D12CDC82CB82ED82FE820F831887C80145
:100A2000B7010E94FD0501971816190684F4082ED7
:100A300004C0EE0CFF1C001F111F0A94D2F7ED82B8
:100A4000FE820F831887C81AD90ADC82CB82BA8249
:100A5000CE0101960E944C062896E9E00C94C7113D
:100A6000ACE0B0E0E6E3F5E00C94B21169837A8380
:100A70008B839C83CE010196BE016B5F7F4F0E94EA
:100A800021078D81823061F1823050F1843021F470
:100A90008E81882351F12EC02F81388537FD20C0EB
:100AA0006E812F3131051CF06623F9F023C08EE1F1
:100AB00090E0821B930B29853A854B855C8504C0A9
:100AC00056954795379527958A95D2F76623B1F0C5
:100AD00050954095309521953F4F4F4F5F4F0EC039
:100AE00020E030E040E050E009C02FEF3FEF4FEF53
:100AF0005FE704C020E030E040E050E8B901CA01FF
:100B00002C96E2E00C94CE11A8E0B0E0EAE8F5E023
:100B10000C94AA117B018C01611571058105910569
:100B200019F482E0898360C083E089838EE1C82E56
:100B3000D12CDC82CB82ED82FE820F831887C80124
:100B4000B7010E94FD05FC013197F7FF3BC022274A
:100B500033272E1B3F0B57016801022E04C0D69489
:100B6000C794B794A7940A94D2F740E050E060E0AD
:100B700070E081E090E0A0E0B0E004C0880F991F31
:100B8000AA1FBB1F2A95D2F70197A109B1098E218F
:100B90009F21A023B1230097A105B10521F041E0D9
:100BA00050E060E070E04A295B296C297D294D8383
:100BB0005E836F8378878EE190E08E1B9F0B9C8312
:100BC0008B8312C0309781F00E2E04C0EE0CFF1CF8
:100BD000001F111F0A94D2F7ED82FE820F8318873F
:100BE000CE1ADF0ADC82CB821A82CE0101960E94E5
:100BF0004C062896EAE00C94C611EF92FF920F93F0
:100C00001F937B018C0180E0E81680E0F80681E00C
:100C1000080780E0180788F48FEFE816F104010553
:100C2000110531F028F088E090E0A0E0B0E017C0B6
:100C300080E090E0A0E0B0E012C080E0E81680E044
:100C4000F80680E0080781E0180728F088E190E0C6
:100C5000A0E0B0E004C080E190E0A0E0B0E020E2DD
:100C600030E040E050E0281B390B4A0B5B0B04C01E
:100C700016950795F794E7948A95D2F7F701ED5802
:100C8000FF4F8081281B310941095109C9011F917A
:100C90000F91FF90EF900895DF92EF92FF920F93E4
:100CA0001F93FC01E480F58006811781D18080814B
:100CB000823048F480E090E0A0E1B0E0E82AF92A30
:100CC0000A2B1B2BA5C0843009F49FC0823021F46D
:100CD000EE24FF24870105C0E114F104010511058C
:100CE00019F4E0E0F0E096C0628173819FEF623812
:100CF00079070CF05BC022E83FEF261B370B2A3147
:100D000031052CF020E030E040E050E02AC0B8018E
:100D1000A701022E04C076956795579547950A94CA
:100D2000D2F781E090E0A0E0B0E004C0880F991F06
:100D3000AA1FBB1F2A95D2F70197A109B1098E21DD
:100D40009F21A023B1230097A105B10521F081E0E7
:100D500090E0A0E0B0E09A01AB01282B392B4A2BA0
:100D60005B2BDA01C9018F779070A070B07080346E
:100D70009105A105B10539F427FF09C0205C3F4F5B
:100D80004F4F5F4F04C0215C3F4F4F4F5F4FE0E03C
:100D9000F0E02030A0E03A07A0E04A07A0E45A07BC
:100DA00010F0E1E0F0E079018A0127C060387105B8
:100DB00064F5FB01E158FF4FD801C7018F779070B0
:100DC000A070B07080349105A105B10539F4E7FE3B
:100DD0000DC080E490E0A0E0B0E004C08FE390E0BC
:100DE000A0E0B0E0E80EF91E0A1F1B1F17FF05C0A8
:100DF00016950795F794E794319687E01695079531
:100E0000F794E7948A95D1F705C0EE24FF24870173
:100E1000EFEFF0E06E2F679566276795902F9F772D
:100E2000D794DD24D7948E2F8695492F462B582FA3
:100E30005D29B701CA011F910F91FF90EF90DF90DC
:100E40000895FC01DB01408151812281622F6F777F
:100E500070E0221F2227221F9381892F880F822B67
:100E6000282F30E0991F9927991F11969C9311976D
:100E700021153105A9F5411551056105710511F4DB
:100E800082E037C082E89FEF13969C938E9312976F
:100E90009A01AB0167E0220F331F441F551F6A956B
:100EA000D1F783E08C930DC0220F331F441F551FD1
:100EB00012968D919C911397019713969C938E9304
:100EC0001297203080E0380780E0480780E4580718
:100ED00058F314962D933D934D935C931797089573
:100EE0002F3F310579F4411551056105710519F45C
:100EF00084E08C93089564FF03C081E08C9312C05A
:100F00001C9210C02F57304013963C932E9312978B
:100F100083E08C9387E0440F551F661F771F8A95E7
:100F2000D1F7706414964D935D936D937C931797EE
:100F300008951F93DC01FB019C91923008F447C097
:100F40008081823008F443C0943051F411961C9192
:100F5000843099F58181682F70E0611B71093FC071
:100F6000843021F0923031F48230B9F181818823CC
:100F700089F12DC011961C9111978230F1F0818179
:100F80001817D9F412962D913C9113978281938171
:100F90008217930794F028173907BCF014968D91A7
:100FA0009D910D90BC91A02D248135814681578162
:100FB000281739074A075B0718F4112341F00AC0C4
:100FC00082179307A407B50740F4112319F061E0D5
:100FD00070E005C06FEF7FEF02C060E070E0CB0112
:100FE0001F910895DF93CF93CDB7DEB70E9400081D
:100FF0000E94CA0A80E80E94F40ACF91DF91089506
:10100000DF93CF93CDB7DEB70E94AD0B25E731E07C
:1010100086E094E0B9010E94DF0E2DE731E087E021
:1010200094E0B9010E94DF0E25E831E088E094E009
:10103000B9010E94DF0E2DE831E089E094E0B901AA
:101040000E94DF0E25E931E08AE094E0B9010E94B8
:10105000DF0ECF91DF910895DF93CF93CDB7DEB749
:1010600081E090E00E945A0BDC01CB01BC01CD0174
:101070000E941B12DC01CB01BC01CD010E94C60005
:10108000DC01CB0190939F0180939E0180E060E0A2
:101090000E94C10E80E690E00E940C0E80919E019D
:1010A00090919F010E94280E83E690E00E940C0E12
:1010B00081E090E00E94910BDC01CB01BC01CD01ED
:1010C00042E050E00E946B0E87E690E00E940C0E1A
:1010D0000E944F0BCC01A0E0B0E0BC01CD010E940A
:1010E0008405DC01CB01BC01CD0120E030E040E80B
:1010F00053E40E949603DC01CB01BC01CD0120E04A
:1011000030E048EC52E40E949C02DC01CB01BC01BF
:10111000CD010E941B12DC01CB01BC01CD010E945C
:10112000C600DC01CB01882F90E00E94280E85E2EA
:101130000E94340DCF91DF910895DF93CF9300D0BB
:101140000F92CDB7DEB79B838A8381E060E00E9477
:10115000C10E1982B3C08981282F30E081E090E070
:10116000821B930B880F991F22273327281B390BCB
:101170008A819B81FC01E20FF31F8081918123E032
:10118000883E920741F58981882F90E09C01220FCB
:10119000331F8A819B81FC01E20FF31F80819181C3
:1011A00024E087359207B9F48981882F90E0019671
:1011B0009C01220F331F8A819B81FC01E20FF31FE8
:1011C0008081918123E0883E920729F48AE094E0AF
:1011D0000E94140F70C08981882F90E09C01220F1B
:1011E000331F8A819B81FC01E20FF31F8081918173
:1011F00024E087359207B9F48981882F90E0019621
:101200009C01220F331F8A819B81FC01E20FF31F97
:101210008081918123E0883E920729F487E094E061
:101220000E94140F48C08981282F30E081E090E0AF
:10123000821B930B880F991F22273327281B390BFA
:101240008A819B81FC01E20FF31F8081918123E061
:10125000883E9207B1F48981882F90E09C01220F8B
:10126000331F8A819B81FC01E20FF31F80819181F2
:1012700024E08735920729F486E094E00E94140F59
:101280001AC08981882F90E09C01220F331F8A8128
:101290009B81FC01E20FF31F8081918124E087355F
:1012A000920729F488E094E00E94140F04C089E0BA
:1012B00094E00E94140F89818F5F89838981803136
:1012C00008F449CF0F900F900F90CF91DF910895C0
:1012D000DF93CF93CDB7DEB70E9492090E94BD0A7B
:1012E0000E94D309882339F081E00E94F4090E940A
:1012F000D3098823E1F70E94DE09882339F08FEFB4
:101300000E94F4090E94DE098823E1F70E94E9099E
:10131000882331F380E00E94F4090E94E9098823C0
:10132000E1F7DECFDF93CF93CDB7DEB70E94F207B0
:1013300080EA91E060E10E94100B0E94A209CF9127
:10134000DF910895DF93CF93CDB7DEB7A1E3B0E08F
:10135000E1E3F0E080818B7F8C93A1E3B0E0E1E3F7
:10136000F0E080818F7B8C93A7E3B0E0E7E3F0E0CF
:1013700080818E7F8C93A2E3B0E0E2E3F0E0808195
:1013800084608C93A2E3B0E0E2E3F0E080818064CB
:101390008C93A8E3B0E0E8E3F0E0808181608C9377
:1013A000CF91DF910895DF93CF93CDB7DEB7E0E320
:1013B000F0E080818470CF91DF910895DF93CF9327
:1013C000CDB7DEB7E0E3F0E080818074CF91DF91AC
:1013D0000895DF93CF93CDB7DEB7E6E3F0E08081E9
:1013E0008170CF91DF910895EF92FF920F931F9339
:1013F000DF93CF93CDB7DEB761970FB6F894DEBF1A
:101400000FBECDBF898B0E944F0BCC01A0E0B0E096
:10141000BC01CD010E9484057B018C01898999273B
:1014200087FD9095A92FB92FBC01CD010E94D20450
:10143000DC01CB01BC01CD012DEC3CEC4CE451E4D2
:101440000E949C02DC01CB019C01AD01C801B701E7
:101450000E946F02DC01CB01BC01CD010E94C600DD
:10146000DC01CB01988B8F878F850E94F40A80EA7C
:1014700091E060E10E94100B80E090E0A0E8BFE303
:101480008B879C87AD87BE876B857C858D859E8588
:1014900020E030E04AE755E40E949C02DC01CB01E9
:1014A0008F839887A987BA876F81788589859A8580
:1014B00020E030E040E85FE30E94A20488232CF49F
:1014C00081E090E09E838D833FC06F817885898520
:1014D0009A8520E03FEF4FE757E40E944204181638
:1014E0004CF56B857C858D859E8520E030E040E263
:1014F00051E40E949C02DC01CB01BC01CD010E94A1
:10150000C600DC01CB019E838D830FC080E991E092
:101510009C838B838B819C810197F1F79C838B83C8
:101520008D819E8101979E838D838D819E81009701
:1015300069F714C06F81788589859A850E94C600F5
:10154000DC01CB019E838D838D819E819A8389836B
:1015500089819A810197F1F79A8389830E94BD0A54
:1015600061960FB6F894DEBF0FBECDBFCF91DF916D
:101570001F910F91FF90EF900895DF93CF93CDB718
:10158000DEB70E942C0880EA91E00E949D08CF916E
:10159000DF910895DF93CF93CDB7DEB7A1E3B0E03D
:1015A000E1E3F0E0808180628C93AFE4B0E0EFE4AF
:1015B000F0E0808181608C93AEE4B0E0EEE4F0E096
:1015C000808188608C93AEE4B0E0EEE4F0E080814E
:1015D00081608C93AFE4B0E0EFE4F0E0808180685C
:1015E0008C93CF91DF910895DF93CF930F92CDB776
:1015F000DEB78983EAE4F0E08981882F90E0918367
:1016000080830F90CF91DF910895DF93CF93CDB773
:10161000DEB7E0E3F0E080818072CF91DF91089542
:10162000DF93CF93CDB7DEB728970FB6F894DEBF20
:101630000FBECDBF9B838A836C83198223C08981AF
:10164000882F90E09C01220F331F8A819B81AC017F
:10165000420F531F58874F830E94050B882329F0A0
:1016600087E594E09E838D8304C0E8EEF3E0FE837B
:10167000ED834D815E81EF81F885518340838981BF
:101680008F5F898399818C819817C8F228960FB64D
:10169000F894DEBF0FBECDBFCF91DF910895DF93E9
:1016A000CF93CDB7DEB7EAE4F0E080819181CF91AE
:1016B000DF910895DF93CF9300D0CDB7DEB79A8343
:1016C000898389819A81CC01A0E0B0E0BC01CD0181
:1016D0000E948405DC01CB01BC01CD0120E030E09B
:1016E00040E853E40E949C02DC01CB019C01AD0167
:1016F00060E074E284E79BE40E949603DC01CB0186
:10170000BC01CD0120E030E04AE754E40E9496039A
:10171000DC01CB01BC01CD010F900F90CF91DF9187
:101720000895DF93CF9300D0CDB7DEB79A83898336
:1017300089819A810E945A0B9B01AC0160E070E0A4
:1017400080E89FE30E949603DC01CB01BC01CD0140
:101750000F900F90CF91DF910895DF93CF93CDB786
:10176000DEB72E970FB6F894DEBF0FBECDBFAAE34B
:10177000B0E0EAE3F0E08081806F8C93A7E3B0E013
:10178000E7E3F0E0808182608C93A7E3B0E0E7E3D9
:10179000F0E0808184608C93A7E3B0E0E7E3F0E0C1
:1017A000808188608C9380E090E0A0E7B1E48B8733
:1017B0009C87AD87BE876B857C858D859E8520E067
:1017C00030E04AE755E40E949C02DC01CB018F83A4
:1017D0009887A987BA876F81788589859A8520E05F
:1017E00030E040E85FE30E94A20488232CF481E00B
:1017F00090E09E838D833FC06F81788589859A852F
:1018000020E03FEF4FE757E40E94420418164CF5E2
:101810006B857C858D859E8520E030E040E251E43B
:101820000E949C02DC01CB01BC01CD010E94C600DC
:10183000DC01CB019E838D830FC080E991E09C8306
:101840008B838B819C810197F1F79C838B838D81A6
:101850009E8101979E838D838D819E81009769F77C
:1018600014C06F81788589859A850E94C600DC0145
:10187000CB019E838D838D819E819A83898389810B
:101880009A810197F1F79A83898382E00E945C0C28
:1018900088E20E945C0C8CE00E945C0C0E940F119C
:1018A00086E00E945C0C2E960FB6F894DEBF0FBE49
:1018B000CDBFCF91DF910895DF93CF93CDB7DEB742
:1018C00069970FB6F894DEBF0FBECDBF898F80E059
:1018D0000E94230F898D0E94460F80E090E0A0E8CF
:1018E000BFE38D8B9E8BAF8BB88F6D897E898F897F
:1018F000988D2BEA3AEA4AEA50E40E949C02DC0105
:10190000CB01898B9A8BAB8BBC8B69897A898B894C
:101910009C8920E030E040E85FE30E94A204882335
:101920001CF481E0888B91C069897A898B899C89B4
:1019300020E030E04FE753E40E94420418160CF018
:101940007BC06D897E898F89988D20E030E04AE7E1
:1019500054E40E949603DC01CB018C879D87AE87FF
:10196000BF876C857D858E859F8520E030E04AE7C6
:1019700055E40E949C02DC01CB0188879987AA87E5
:10198000BB87688579858A859B8520E030E040E8C3
:101990005FE30E94A20488232CF481E090E09F83FF
:1019A0008E833FC0688579858A859B8520E03FEFDF
:1019B0004FE757E40E94420418164CF56C857D856C
:1019C0008E859F8520E030E040E251E40E949C0239
:1019D000DC01CB01BC01CD010E94C600DC01CB01C2
:1019E0009F838E830FC080E991E09D838C838C81DF
:1019F0009D810197F1F79D838C838E819F81019753
:101A00009F838E838E819F81009769F724C06885AC
:101A100079858A859B850E94C600DC01CB019F8366
:101A20008E838E819F819B838A838A819B8101978C
:101A3000F1F79B838A830FC069897A898B899C8996
:101A40000E94C600DC01CB01888B8889898389814B
:101A50008A95F1F7898369960FB6F894DEBF0FBEB9
:101A6000CDBFCF91DF910895DF93CF93CDB7DEB790
:101A700069970FB6F894DEBF0FBECDBF898F81E0A6
:101A80000E94230F898D0E94460F80E090E0A0E81D
:101A9000BFE38D8B9E8BAF8BB88F6D897E898F89CD
:101AA000988D2BEA3AEA4AEA50E40E949C02DC0153
:101AB000CB01898B9A8BAB8BBC8B69897A898B899B
:101AC0009C8920E030E040E85FE30E94A204882384
:101AD0001CF481E0888B91C069897A898B899C8903
:101AE00020E030E04FE753E40E94420418160CF067
:101AF0007BC06D897E898F89988D20E030E04AE730
:101B000054E40E949603DC01CB018C879D87AE874D
:101B1000BF876C857D858E859F8520E030E04AE714
:101B200055E40E949C02DC01CB0188879987AA8733
:101B3000BB87688579858A859B8520E030E040E811
:101B40005FE30E94A20488232CF481E090E09F834D
:101B50008E833FC0688579858A859B8520E03FEF2D
:101B60004FE757E40E94420418164CF56C857D85BA
:101B70008E859F8520E030E040E251E40E949C0287
:101B8000DC01CB01BC01CD010E94C600DC01CB0110
:101B90009F838E830FC080E991E09D838C838C812D
:101BA0009D810197F1F79D838C838E819F810197A1
:101BB0009F838E838E819F81009769F724C06885FB
:101BC00079858A859B850E94C600DC01CB019F83B5
:101BD0008E838E819F819B838A838A819B810197DB
:101BE000F1F79B838A830FC069897A898B899C89E5
:101BF0000E94C600DC01CB01888B8889898389819A
:101C00008A95F1F7898369960FB6F894DEBF0FBE07
:101C1000CDBFCF91DF910895DF93CF9300D0CDB7A3
:101C2000DEB79A8389830AC0E981FA8180810E94A4
:101C3000340D89819A8101969A838983E981FA8199
:101C40008081882389F70F900F90CF91DF910895BD
:101C5000DF93CF93CDB7DEB72A970FB6F894DEBFE8
:101C60000FBECDBF9A87898789859A85009721F411
:101C700080E30E94340D26C089859A859E012D5FE0
:101C80003F4FB9014AE050E00E94FA111A821982CE
:101C90000FC029813A81CE010396FC01E20FF31FA8
:101CA00080810E94340D89819A8101969A8389836B
:101CB00029813A81CE010396FC01E20FF31F808156
:101CC000882339F72A960FB6F894DEBF0FBECDBF32
:101CD000CF91DF9108950F931F93DF93CF93CDB7EB
:101CE000DEB768970FB6F894DEBF0FBECDBF6B8B23
:101CF0007C8B8D8B9E8B588F4F8B8B899C89AD896C
:101D0000BE892F89388DFE013396BC01CD0140E09C
:101D100050E08F010E94D9111A8219821DC0898159
:101D20009A81009751F429813A81CE010396FC01F2
:101D3000E20FF31F8081803351F029813A81CE0177
:101D40000396FC01E20FF31F80810E94340D89810C
:101D50009A8101969A83898329813A81CE010396DB
:101D6000FC01E20FF31F80818823C9F668960FB645
:101D7000F894DEBF0FBECDBFCF91DF911F910F91C1
:101D80000895DF93CF9300D00F92CDB7DEB78A834B
:101D90006B838A81882321F48B818058898306C0D4
:101DA0008A81813031F48B818054898389810E94BA
:101DB0005C0C0F900F900F90CF91DF910895DF93FF
:101DC000CF9300D000D000D0CDB7DEB79C838B83FB
:101DD0007E836D838B81880F880F880F80640E94BB
:101DE0005C0C1A8219820FC029813A818D819E81F3
:101DF000FC01E20FF31F80810E94340D89819A81DA
:101E000001969A83898389819A818830910564F348
:101E100080E80E945C0C26960FB6F894DEBF0FBED9
:101E2000CDBFCF91DF910895DF93CF9300D0CDB791
:101E3000DEB79A83898389810E94340D0F900F90B9
:101E4000CF91DF910895DF93CF930F92CDB7DEB797
:101E500089838981813041F4A8E3B0E0E8E3F0E0D0
:101E6000808182608C9307C0A8E3B0E0E8E3F0E0F3
:101E700080818D7F8C93A8E3B0E0E8E3F0E080817F
:101E80008B7F8C930F90CF91DF910895DF93CF9349
:101E9000CDB7DEB7E1970FB6F894DEBF0FBECDBF6A
:101EA00089ABA8E3B0E0E8E3F0E0808188608C9340
:101EB000ABE3B0E0EBE3F0E08081982F9F7089A95D
:101EC000807F892B8C9380E090E0A0E8BFE38DA712
:101ED0009EA7AFA7B8AB6DA57EA58FA598A92BEA45
:101EE0003AEA4AEA50E40E949C02DC01CB0189A74D
:101EF0009AA7ABA7BCA769A57AA58BA59CA520E04E
:101F000030E040E85FE30E94A20488231CF481E0F3
:101F100088A791C069A57AA58BA59CA520E030E093
:101F20004FE753E40E94420418160CF07BC06DA5E5
:101F30007EA58FA598A920E030E04AE754E40E94EE
:101F40009603DC01CB018CA39DA3AEA3BFA36CA120
:101F50007DA18EA19FA120E030E04AE755E40E94D8
:101F60009C02DC01CB0188A399A3AAA3BBA368A10F
:101F700079A18AA19BA120E030E040E85FE30E94C4
:101F8000A20488232CF481E090E09F8F8E8F3FC0C5
:101F900068A179A18AA19BA120E03FEF4FE757E418
:101FA0000E94420418164CF56CA17DA18EA19FA140
:101FB00020E030E040E251E40E949C02DC01CB01D1
:101FC000BC01CD010E94C600DC01CB019F8F8E8F2A
:101FD0000FC080E991E09D8F8C8F8C8D9D8D019736
:101FE000F1F79D8F8C8F8E8D9F8D01979F8F8E8F98
:101FF0008E8D9F8D009769F724C068A179A18AA171
:102000009BA10E94C600DC01CB019F8F8E8F8E8D1D
:102010009F8D9B8F8A8F8A8D9B8D0197F1F79B8F68
:102020008A8F0FC069A57AA58BA59CA50E94C600C2
:10203000DC01CB0188A788A5898F898D8A95F1F766
:10204000898FA8E3B0E0E8E3F0E08081877F8C939C
:10205000A8E3B0E0E8E3F0E0808188608C93ABE334
:10206000B0E0EBE3F0E08081282F2F7089A9882F62
:1020700090E082959295907F9827807F9827822B79
:102080008C9380E090E0A0E8BFE38D8B9E8BAF8BBC
:10209000B88F6D897E898F89988D2BEA3AEA4AEA52
:1020A00050E40E949C02DC01CB01898B9A8BAB8BA4
:1020B000BC8B69897A898B899C8920E030E040E873
:1020C0005FE30E94A20488231CF481E0888B91C006
:1020D00069897A898B899C8920E030E04FE753E455
:1020E0000E94420418160CF07BC06D897E898F898E
:1020F000988D20E030E04AE754E40E949603DC012A
:10210000CB018C879D87AE87BF876C857D858E854B
:102110009F8520E030E04AE755E40E949C02DC0104
:10212000CB0188879987AA87BB87688579858A8547
:102130009B8520E030E040E85FE30E94A204882312
:102140002CF481E090E09F838E833FC06885798581
:102150008A859B8520E03FEF4FE757E40E944204C9
:1021600018164CF56C857D858E859F8520E030E0C6
:1021700040E251E40E949C02DC01CB01BC01CD0194
:102180000E94C600DC01CB019F838E830FC080E9D3
:1021900091E09D838C838C819D810197F1F79D83D4
:1021A0008C838E819F8101979F838E838E819F81F7
:1021B000009769F724C0688579858A859B850E9488
:1021C000C600DC01CB019F838E838E819F819B8320
:1021D0008A838A819B810197F1F79B838A830FC051
:1021E00069897A898B899C890E94C600DC01CB01B0
:1021F000888B8889898389818A95F1F78983A8E307
:10220000B0E0E8E3F0E08081877F8C93E1960FB641
:10221000F894DEBF0FBECDBFCF91DF910895DF935D
:10222000CF93CDB7DEB72E970FB6F894DEBF0FBEB3
:10223000CDBF81E00E945C0C80E090E0A0E0B0E4C3
:102240008B879C87AD87BE876B857C858D859E85BA
:1022500020E030E04AE755E40E949C02DC01CB011B
:102260008F839887A987BA876F81788589859A85B2
:1022700020E030E040E85FE30E94A20488232CF4D1
:1022800081E090E09E838D833FC06F817885898552
:102290009A8520E03FEF4FE757E40E94420418166A
:1022A0004CF56B857C858D859E8520E030E040E295
:1022B00051E40E949C02DC01CB01BC01CD010E94D3
:1022C000C600DC01CB019E838D830FC080E991E0C5
:1022D0009C838B838B819C810197F1F79C838B83FB
:1022E0008D819E8101979E838D838D819E81009734
:1022F00069F714C06F81788589859A850E94C60028
:10230000DC01CB019E838D838D819E819A8389839D
:1023100089819A810197F1F79A8389832E960FB666
:10232000F894DEBF0FBECDBFCF91DF910895DF934C
:10233000CF93CDB7DEB70E94680980E090E0CF91DF
:10234000DF9108952F923F924F925F926F927F920A
:102350008F929F92AF92BF92CF92DF92EF92FF92B5
:102360000F931F93CF93DF93CDB7DEB7CA1BDB0B61
:102370000FB6F894DEBF0FBECDBF09942A88398806
:1023800048885F846E847D848C849B84AA84B9840D
:10239000C884DF80EE80FD800C811B81AA81B98119
:1023A000CE0FD11D0FB6F894DEBF0FBECDBFED012D
:1023B0000895EF92FF920F931F93F22FF02E47FD97
:1023C00002C0E4E001C0E4E1242F332727FD30956B
:1023D00037FF03C0309521953F4F4F2D512F0F2FC1
:1023E000EE2E0E943B128F2D912F1F910F91FF9087
:1023F000EF900895FB019F01E8944230C4F045320C
:10240000B4F44A3029F497FB1EF4909581959F4FC0
:10241000642F77270E94D714805D8A330CF0895D82
:102420008193CB010097A1F716F45DE251931082DE
:10243000C9010C9475149AD2E0F09E37D8F0963901
:10244000B8F49E3848F4672F782F8827985FF9CF23
:1024500086957795679593959539D0F3B62FB1709A
:102460006B0F711D811D20F4879577956795939566
:102470004CC266C296C2A9E0B0E0E1E4F2E10C947D
:10248000A6116A01122FA02EBE2C2BE3201718F4E0
:102490002CE3922E02C0902E9394AE014F5F5F4FBB
:1024A00027E0092D0E949D13BC018981E82EFF249D
:1024B000C70189709070019711F4ADE209C0B1FEB7
:1024C00002C0ABE205C0B0FC02C0A0E001C0A0E2C7
:1024D000E3FE3BC0AA2311F423E001C024E021174E
:1024E00010F020E002C0121B212FEB2CB4FE02C022
:1024F000322F0AC0F601322F80E202C081933150A0
:102500003323E1F7C20ED11CAA2319F0F601A193DF
:102510006F01F6013196E2FE05C09EE4D6019C9360
:1025200081E404C09EE6D6019C9381E611968C93CB
:1025300091833296DF01832F90E202C09D938150F8
:102540008823E1F7E30FF11D40C0E2FE42C0AA2359
:1025500011F423E001C024E0211710F020E002C0B4
:10256000121B212FEB2CB4FE02C0922F0AC0F601E1
:10257000922F80E202C0819391509923E1F7C20E1D
:10258000D11CAA2319F0F601A1936F01F60131962F
:10259000E2FE08C089E4D6018C938EE411968C93F8
:1025A00086E407C089E6D6018C938EE611968C935B
:1025B00086E681833296DF01892F20E202C02D93C7
:1025C00081508823E1F7E90FF11D10822EEF3FEFD4
:1025D000AFC0161617061CF041E050E003C0AB0177
:1025E0004F5F5F4FAA2019F480E090E003C08A2D6E
:1025F00090E0019620E030E0AA2311F021E030E0E5
:10260000240F351F280F391F812F90E02817390715
:1026100014F020E002C0121B212F4B2D50E0CA0104
:1026200080719070B4FC0DC0B3FC0BC0F601322F6A
:1026300040E202C0419331503323E1F7C20ED11C76
:1026400001C0322FAA2319F0F601A1936F01892B43
:1026500011F0132F0AC0F601132F80E302C08193FB
:1026600011501123E1F7C30ED11C092D060FBA80BA
:1026700090E1892E912C8E209F20E4FE04C0F1E38E
:10268000BF1609F40150101614F001E003C0093020
:1026900008F008E09B0177FF02C020E030E0CB01AA
:1026A0000196821B930BFE013196E80FF91F8EE213
:1026B000F82E3B01601A71088A2D90E044275527B7
:1026C000481B590B8FEF2F3F380719F4D601FD92A5
:1026D0006D01621773072CF06216730614F4808183
:1026E00001C080E32150304031962417350724F093
:1026F000D6018D936D01E6CF2617370749F4B5E370
:10270000BB1528F0BB1621F48114910409F481E370
:10271000F6018193D601812F90E202C09C938150F3
:1027200011968823D9F7E10FF11D108220E030E0E7
:10273000C9012996EEE00C94C211283008F027E078
:102740003327DA01990F311D87FD916000966105ED
:10275000710539F432602E5F3D9330E32A95E1F73D
:1027600008959F3F30F080387105610509F03C5FA6
:102770003C5F3D93913008F08068911DDF93CF93CB
:102780001F930F93FF92EF92192F987F9695E92F41
:1027900096959695E90FFF27E255FF4F9927332726
:1027A000EE24FF24A701E70105900894079428F47C
:1027B000360FE71EF81E491F511D660F771F881F31
:1027C000991F0694A1F70590079428F4E70EF81EC8
:1027D000491F561FC11D770F881F991F661F06943A
:1027E000A1F70590079428F4F80E491F561FC71F3C
:1027F000D11D880F991F661F771F0694A1F70590BA
:10280000079420F4490F561FC71FD81F990F661F42
:10281000771F881F0694A9F784911095177041F0CF
:10282000D695C79557954795F794E7941A95C1F7AC
:10283000E4E5F0E0689415901591359165919591D6
:1028400005907FE27395E118F10A430B560BC90B13
:10285000D009C0F7E10CF11E431F561FC91FD01D40
:102860007EF4703311F48A95E6CFE894015030F08D
:10287000080F0AF40027021708F4202F2395022FCF
:102880007A3328F079E37D932A95E9F710C07D9398
:102890002A9589F606949795679537951795179415
:1028A000E118F10A430B560BC90BD00998F0239598
:1028B0007E9173957A3308F070E37C932013B8F718
:1028C0007E9170617D9330F0839571E37D9370E329
:1028D0002A95E1F71124EF90FF900F911F91CF916E
:1028E000DF91992787FD90950895DC01FC01672F02
:1028F00071917723E1F7329704C07C916D937083D7
:102900006291AE17BF07C8F30895882371F4772347
:1029100021F09850872B762F07C0662311F4992752
:102920000DC09051862B70E060E02AF09A95660FFA
:10293000771F881FDAF7880F9695879597F908957E
:102940009F3F31F0915020F4879577956795B79523
:10295000880F911D9695879597F9089557FD905882
:10296000440F551F59F05F3F71F04795880F97FB53
:10297000991F61F09F3F79F087950895121613060D
:102980001406551FF2CF4695F1DF08C0161617063C
:102990001806991FF1CF8695710561050894089571
:1029A000E894BB2766277727CB0197F90895AA1BE0
:1029B000BB1B51E107C0AA1FBB1FA617B70710F02A
:1029C000A61BB70B881F991F5A95A9F7809590955C
:0A29D000BC01CD010895F894FFCF7B
:1029DA00463D0020543D0020443D00000000000018
:1029EA0000000000010202030303030404040404B8
:1029FA000404040505050505050505050505050580
:102A0A00050505060606060606060606060606065F
:102A1A00060606060606060606060606060606064C
:102A2A00060606070707070707070707070707072F
:102A3A00070707070707070707070707070707071C
:102A4A00070707070707070707070707070707070C
:102A5A0007070707070707070707070707070707FC
:102A6A0007070708080808080808080808080808DF
:102A7A0008080808080808080808080808080808CC
:102A8A0008080808080808080808080808080808BC
:102A9A0008080808080808080808080808080808AC
:102AAA00080808080808080808080808080808089C
:102ABA00080808080808080808080808080808088C
:102ACA00080808080808080808080808080808087C
:102ADA00080808080808080808080808080808086C
:102AEA0008080880001F101010101010101F010194
:102AFA0001010101011F00000000000000000000A8
:0E2B0A00000000001F1F111111111111110008
:00000001FF
